:100000000C9458000C94AD030C9486030C9480005F
:100010000C9480000C9480000C9480000C94800060
:100020000C9480000C9480000C9480000C94800050
:100030000C9480000C9480000C9480000C94800040
:100040000C943C030C9480000C940A030C94E4027E
:100050000C9480000C9480000C9480000C94800020
:100060000C94D4030C9480000000000025002800AC
:100070002B00040404040404040402020202020229
:10008000030303030303010204081020408001025C
:1000900004081020010204081020000000080002DB
:1000A000010000030407000000000000000002053A
:1000B00011241FBECFEFD8E0DEBFCDBF11E0A0E01E
:1000C000B1E0E8E2FEE002C005900D92A832B1076F
:1000D000D9F722E0A8E2B1E001C01D92AA39B20727
:1000E000E1F710E0C8E5D0E004C02197FE010E94CE
:1000F0000707C735D107C9F70E943B050C941207C3
:100100000C94000090E0FC01E656FF4F2491FC01A6
:10011000EA57FF4F3491FC01EE58FF4FE491EE2374
:10012000B1F1222339F1233091F038F42130A9F0D4
:10013000223001F584B58F7D12C0273091F0283030
:10014000A1F02430B9F4809180008F7D03C08091AC
:1001500080008F77809380000DC084B58F7784BD39
:1001600009C08091B0008F7703C08091B0008F7D6F
:100170008093B000F0E0EE0FFF1FE859FF4FA5910C
:10018000B4918FB7F894EC913E2B3C938FBF0895B8
:100190008091E5019091E60101969093E6018093AC
:1001A000E50108950895E091C101F091C2013097F1
:1001B00029F01092BA011092B90109940895CF93D1
:1001C000DF93AC01E0914801F09149013097F1F0E3
:1001D0009091BC018091BB019817C0F090E0292F4D
:1001E00030E02617370754F4D901A85DBE4FEA0165
:1001F000C20FD31F88818C939F5FF1CF1092BC01F7
:100200006093BB01CB01DF91CF910994DF91CF9136
:100210000895CF92DF92EF92FF920F931F93CF93A7
:10022000DF936C017A018B01C0E0D0E0CE15DF05D1
:1002300089F0D8016D918D01D601ED91FC9101906D
:10024000F081E02DC6010995892B11F47E0102C0D1
:100250002196ECCFC701DF91CF911F910F91FF90B5
:10026000EF90DF90CF900895FC01538D448D252FA2
:1002700030E0842F90E0821B930B541710F0CF9640
:10028000089501970895FC01918D828D981761F072
:10029000828DDF01A80FB11D5D968C91928D9F5FBD
:1002A0009F73928F90E008958FEF9FEF0895FC0168
:1002B000918D828D981731F0828DE80FF11D858D1B
:1002C00090E008958FEF9FEF0895FC01918D228DAE
:1002D000892F90E0805C9F4F821B91098F73992733
:1002E000089581EF91E00E94650121E0892B09F4D6
:1002F00020E0822F0895FC01848DDF01A80FB11D3D
:10030000A35ABF4F2C91848D90E001968F7399274B
:10031000848FA689B7892C93A089B1898C91806438
:100320008C93938D848D981306C00288F389E02DF9
:1003300080818F7D80830895EF92FF920F931F93AA
:10034000CF93DF93EC0181E0888F9B8D8C8D981388
:1003500005C0E889F989808185FD24C0F62E0B8DC2
:1003600010E00F5F1F4F0F731127E02E8C8DE812E6
:100370000CC00FB607FCFACFE889F989808185FFA8
:10038000F5CFCE010E947B01F1CF8B8DFE01E80FEE
:10039000F11DE35AFF4FF0820B8FEA89FB898081C0
:1003A000806207C0EE89FF896083E889F9898081CE
:1003B0008064808381E090E0DF91CF911F910F9165
:1003C000FF90EF900895CF93DF93EC01888D882301
:1003D000C9F0EA89FB89808185FD05C0A889B989B2
:1003E0008C9186FD0FC00FB607FCF5CF808185FF8D
:1003F000F2CFA889B9898C9185FFEDCFCE010E94FB
:100400007B01E7CFDF91CF91089580E090E0892BC9
:1004100029F00E94710181110C94000008953FB7EA
:10042000F8948091B2019091B301A091B401B09180
:10043000B50126B5A89B05C02F3F19F00196A11D57
:10044000B11D3FBFBA2FA92F982F8827820F911D6A
:10045000A11DB11DBC01CD0142E0660F771F881FB1
:10046000991F4A95D1F7089585ED8093BC0080913E
:10047000BC0084FDFCCF1092B801089540916A0140
:10048000262F30E0240F311D21323105DCF420917C
:10049000B8012430C9F4FC0180E090E0861758F4DC
:1004A00030916A012191DC01A65BBE4FA30FB11D03
:1004B0002C930196F3CF80916A01680F60936A01D3
:1004C00080E0089581E0089582E008950895E09124
:1004D000BC018091BB01E81730F4F0E0E85DFE4F0D
:1004E000808190E008958FEF9FEF08959091BC0177
:1004F0008091BB01981750F4E92FF0E0E85DFE4FC2
:10050000208130E09F5F9093BC0102C02FEF3FEF4E
:10051000C90108958091BB0190E02091BC01821B2C
:1005200091090895CF93DF9300D0CDB7DEB7CB010B
:10053000642F49835A830E943E024981842F5A8145
:10054000952F0F900F90DF91CF910895CF93DF9368
:1005500000D000D0CDB7DEB72091C7013091C801DF
:10056000C901330FAA0BBB0BB983AD01772757FD28
:100570007095672F4A839B832C8344E050E0BE0133
:100580006F5F7F4F8EE892E00E9492020F900F9073
:100590000F900F90DF91CF910895CF93DF931F922B
:1005A000CDB7DEB7698361E0CE0101960E943E02BD
:1005B00081E090E00F90DF91CF910895089580E061
:1005C00090E008950E940D071F920F920FB60F92B0
:1005D00011242F933F934F935F936F937F938F9348
:1005E0009F93AF93BF93EF93FF9381EF91E00E94AE
:1005F0007B01FF91EF91BF91AF919F918F917F917F
:100600006F915F914F913F912F910F900FBE0F907F
:100610001F9018951F920F920FB60F9211242F93CF
:100620008F939F93EF93FF93E0910102F091020269
:100630008081E0910702F091080282FD12C0908152
:1006400080910A028F5F8F7320910B02821751F005
:10065000E0910A02F0E0EF50FE4F958F80930A027E
:1006600001C08081FF91EF919F918F912F910F9009
:100670000FBE0F901F9018951F920F920FB60F92FA
:1006800011242F933F938F939F93AF93BF938091A8
:10069000C3019091C401A091C501B091C6013091F0
:1006A000B10123E0230F2D3720F40196A11DB11DC8
:1006B00005C026E8230F0296A11DB11D2093B101AC
:1006C0008093C3019093C401A093C501B093C60168
:1006D0008091B2019091B301A091B401B091B501A4
:1006E0000196A11DB11D8093B2019093B301A09317
:1006F000B401B093B501BF91AF919F918F913F919C
:100700002F910F900FBE0F901F9018951F920F9270
:100710000FB60F9211242F933F934F935F936F93D4
:100720007F938F939F93AF93BF93EF93FF93E0914A
:100730000201F09103010995FF91EF91BF91AF91F3
:100740009F918F917F916F915F914F913F912F91E9
:100750000F900FBE0F901F9018951F920F920FB61B
:100760000F9211242F933F934F935F936F937F9337
:100770008F939F93AF93BF93EF93FF93E09100010B
:10078000F09101010995FF91EF91BF91AF919F9178
:100790008F917F916F915F914F913F912F910F902A
:1007A0000FBE0F901F9018951F920F920FB60F92C9
:1007B00011242F933F934F935F936F937F938F9366
:1007C0009F93AF93BF93EF93FF938091B900887F7E
:1007D000803609F49CC068F5883209F45BC090F457
:1007E000803109F454C038F4882309F4F6C0883005
:1007F00009F44DC0F6C0883109F44CC0803209F4C8
:100800005DC0EFC0803409F468C048F4803309F457
:1008100055C0883309F0E5C080938D01D8C080357C
:1008200009F44FC0883509F45DC0883409F0D9C097
:10083000D6C0883909F4C7C0A8F4883709F467C05E
:1008400038F4883609F463C0803709F460C0C9C041
:10085000883809F4B8C0803909F45FC0803809F0DD
:10086000C0C05BC0803B09F486C038F4803A09F40C
:1008700066C0883A09F47FC0B4C0803C09F4A7C0C0
:10088000883C09F4A4C0883B09F48AC0AAC08091BE
:10089000B00110C09091AF018091AE01981770F532
:1008A000E091AF0181E08E0F8093AF01F0E0E2575D
:1008B000FE4F80818093BB0085EC86C080938D01C4
:1008C0008EC0E091AF0181E08E0F8093AF018091E7
:1008D000BB00F0E0E257FE4F80839091AF01809122
:1008E000AE016EC0E091AF0181E08E0F8093AF0149
:1008F0008091BB00F0E0E257FE4F80838091B7010A
:1009000081116DC081E08093B60184EA61C083E00B
:100910008093B80110928C01CFCF80918C018032EE
:1009200008F051C0E0918C0181E08E0F80938C0122
:100930008091BB00F0E0E459FE4F8083BDCF85EC91
:100940008093BC001092B80180918C01803230F409
:10095000E0918C01F0E0E459FE4F108260918C012F
:1009600070E0E091BD01F091BE018CE691E0099547
:1009700010928C0136C084E08093B80110926B0114
:1009800010926A01E091BF01F091C0010995809138
:100990006A01811105C081E080936A0110924A01C9
:1009A000E0916B0181E08E0F80936B01F0E0E65BDC
:1009B000FE4F80818093BB0090916B0180916A0112
:1009C000981708F479CF85E88093BC000AC085ECBD
:1009D0008093BC001092B80104C010928D010E9457
:1009E0003402FF91EF91BF91AF919F918F917F91D1
:1009F0006F915F914F913F912F910F900FBE0F908C
:100A00001F901895E1EFF1E01382128288EE93E0D7
:100A1000A0E0B0E084839583A683B78328E031E02B
:100A20003183208325EC30E03587248724EC30E0C7
:100A30003787268720EC30E0318B208B21EC30E0AB
:100A4000338B228B22EC30E0358B248B26EC30E08C
:100A5000378B268B118E128E138E148EEEE8F2E0F9
:100A60001382128284839583A683B7838AE191E0FF
:100A7000918380830895789484B5826084BD84B521
:100A8000816084BD85B5826085BD85B5816085BD89
:100A900080916E00816080936E0010928100809141
:100AA00081008260809381008091810081608093C9
:100AB0008100809180008160809380008091B100EE
:100AC00084608093B1008091B00081608093B00019
:100AD00080917A00846080937A0080917A008260AD
:100AE00080937A0080917A00816080937A0080916F
:100AF0007A00806880937A001092C100E091010230
:100B0000F091020282E08083E091FD01F091FE010C
:100B10001082E091FF01F09100028FEC808310922F
:100B20000902E0910502F091060286E08083E091DF
:100B30000302F0910402808180618083E0910302CE
:100B4000F0910402808188608083E0910302F0913B
:100B50000402808180688083E0910302F0910402A6
:100B600080818F7D808388EC90E090930101809359
:100B70000001809169008C7F826080936900E89A0F
:100B80008CE48093BA0083ED90E09093C001809351
:100B9000BF018FED90E09093BE018093BD01109254
:100BA000BC011092BB011092BA011092B9011092CF
:100BB000B80181E08093B7011092B60182E10E94F2
:100BC000820083E10E9482008091B9008E7F809331
:100BD000B9008091B9008D7F8093B90088E480933B
:100BE000B80085E48093BC0086EA92E09093C2014D
:100BF0008093C101C2EDD0E02CE3322E3AE0832E87
:100C0000912CA12CB12C08EC10E02FB7F894809116
:100C1000C3019091C401A091C501B091C6012FBF3D
:100C20004091ED015091EE016091EF017091F00162
:100C3000841B950BA60BB70B883E9340A105B1050D
:100C400008F49AC0E898D0930101C0930001109273
:100C5000E9011092EA011092EB011092EC01E09090
:100C6000E701F090E8012091E5013091E601F701FC
:100C7000EE0FFF1FEF52FE4F329EC001339E900DCC
:100C800011249183808360E070E0CB01E1EDF1E01D
:100C9000219131912901330F66087708640D751D84
:100CA000861D971D21E0E53EF20791F76093E9016B
:100CB0007093EA018093EB019093EC01A5019401FC
:100CC0000E94E5062093CD013093CE014093CF01E1
:100CD0005093D0012093C9013093CA014093CB01B6
:100CE0005093CC011092E6011092E5018FEFE81AC3
:100CF000F80A2AE0E216F1042CF4F092E801E092FE
:100D0000E70104C01092E8011092E7012FB7F894B0
:100D10008091C3019091C401A091C501B091C60119
:100D20002FBF893F9A42A105B10540F08091C901CA
:100D30009091CA019093C8018093C7012FB7F8948E
:100D40008091C3019091C401A091C501B091C601E9
:100D50002FBF8093ED019093EE01A093EF01B0932C
:100D6000F0011093010100930001809169008C7FD4
:100D7000826080936900E89A0E940F022B013C0177
:100D800084E6C82ED12CE12CF12C0E940F02DC014C
:100D9000CB0184199509A609B709883E9340A1059E
:100DA000B10558F081E0C81AD108E108F10828EE31
:100DB000420E23E0521E611C711CC114D104E104D7
:100DC000F10419F70E94050220CFA1E21A2EAA1BF6
:100DD000BB1BFD010DC0AA1FBB1FEE1FFF1FA217EB
:100DE000B307E407F50720F0A21BB30BE40BF50BE8
:100DF000661F771F881F991F1A9469F76095709571
:100E0000809590959B01AC01BD01CF010895EE0F37
:100E1000FF1F0590F491E02D099481E090E0F89493
:080E20000C941207F894FFCFB7
:100E2800D200D200000000009C0109013401E30156
:100E380065014301570100000000CD029202DF0264
:080E480066028A0276026702CD
:00000001FF
