:100000000C9458000C94AD030C9486030C9480005F
:100010000C9480000C9480000C9480000C94800060
:100020000C9480000C9480000C9480000C94800050
:100030000C9480000C9480000C9480000C94800040
:100040000C943C030C9480000C940A030C94E4027E
:100050000C9480000C9480000C9480000C94800020
:100060000C94D4030C9480000000000025002800AC
:100070002B00040404040404040402020202020229
:10008000030303030303010204081020408001025C
:1000900004081020010204081020000000080002DB
:1000A000010000030407000000000000000002053A
:1000B00011241FBECFEFD8E0DEBFCDBF11E0A0E01E
:1000C000B1E0E8E2FEE002C005900D92A832B1076F
:1000D000D9F722E0A8E2B1E001C01D92AA39B20727
:1000E000E1F710E0C8E5D0E004C02197FE010E94CE
:1000F0000707C735D107C9F70E943B050C941207C3
:100100000C94000090E0FC01E656FF4F2491FC01A6
:10011000EA57FF4F3491FC01EE58FF4FE491EE2374
:10012000B1F1222339F1233091F038F42130A9F0D4
:10013000223001F584B58F7D12C0273091F0283030
:10014000A1F02430B9F4809180008F7D03C08091AC
:1001500080008F77809380000DC084B58F7784BD39
:1001600009C08091B0008F7703C08091B0008F7D6F
:100170008093B000F0E0EE0FFF1FE859FF4FA5910C
:10018000B4918FB7F894EC913E2B3C938FBF0895B8
:100190008091E5019091E60101969093E6018093AC
:1001A000E50108950895E091C101F091C2013097F1
:1001B00029F01092BA011092B90109940895CF93D1
:1001C000DF93AC01E0914801F09149013097F1F0E3
:1001D0009091BC018091BB019817C0F090E0292F4D
:1001E00030E02617370754F4D901A85DBE4FEA0165
:1001F000C20FD31F88818C939F5FF1CF1092BC01F7
:100200006093BB01CB01DF91CF910994DF91CF9136
:100210000895CF92DF92EF92FF920F931F93CF93A7
:10022000DF936C017A018B01C0E0D0E0CE15DF05D1
:1002300089F0D8016D918D01D601ED91FC9101906D
:10024000F081E02DC6010995892B11F47E0102C0D1
:100250002196ECCFC701DF91CF911F910F91FF90B5
:10026000EF90DF90CF900895FC01538D448D252FA2
:1002700030E0842F90E0821B930B541710F0CF9640
:10028000089501970895FC01918D828D981761F072
:10029000828DDF01A80FB11D5D968C91928D9F5FBD
:1002A0009F73928F90E008958FEF9FEF0895FC0168
:1002B000918D828D981731F0828DE80FF11D858D1B
:1002C00090E008958FEF9FEF0895FC01918D228DAE
:1002D000892F90E0805C9F4F821B91098F73992733
:1002E000089581EF91E00E94650121E0892B09F4D6
:1002F00020E0822F0895FC01848DDF01A80FB11D3D
:10030000A35ABF4F2C91848D90E001968F7399274B
:10031000848FA689B7892C93A089B1898C91806438
:100320008C93938D848D981306C00288F389E02DF9
:1003300080818F7D80830895EF92FF920F931F93AA
:10034000CF93DF93EC0181E0888F9B8D8C8D981388
:1003500005C0E889F989808185FD24C0F62E0B8DC2
:1003600010E00F5F1F4F0F731127E02E8C8DE812E6
:100370000CC00FB607FCFACFE889F989808185FFA8
:10038000F5CFCE010E947B01F1CF8B8DFE01E80FEE
:10039000F11DE35AFF4FF0820B8FEA89FB898081C0
:1003A000806207C0EE89FF896083E889F9898081CE
:1003B0008064808381E090E0DF91CF911F910F9165
:1003C000FF90EF900895CF93DF93EC01888D882301
:1003D000C9F0EA89FB89808185FD05C0A889B989B2
:1003E0008C9186FD0FC00FB607FCF5CF808185FF8D
:1003F000F2CFA889B9898C9185FFEDCFCE010E94FB
:100400007B01E7CFDF91CF91089580E090E0892BC9
:1004100029F00E94710181110C94000008953FB7EA
:10042000F8948091B2019091B301A091B401B09180
:10043000B50126B5A89B05C02F3F19F00196A11D57
:10044000B11D3FBFBA2FA92F982F8827820F911D6A
:10045000A11DB11DBC01CD0142E0660F771F881FB1
:10046000991F4A95D1F7089585ED8093BC0080913E
:10047000BC0084FDFCCF1092B801089540916A0140
:10048000262F30E0240F311D21323105DCF420917C
:10049000B8012430C9F4FC0180E090E0861758F4DC
:1004A00030916A012191DC01A65BBE4FA30FB11D03
:1004B0002C930196F3CF80916A01680F60936A01D3
:1004C00080E0089581E0089582E008950895E09124
:1004D000BC018091BB01E81730F4F0E0E85DFE4F0D
:1004E000808190E008958FEF9FEF08959091BC0177
:1004F0008091BB01981750F4E92FF0E0E85DFE4FC2
:10050000208130E09F5F9093BC0102C02FEF3FEF4E
:10051000C90108958091BB0190E02091BC01821B2C
:1005200091090895CF93DF9300D0CDB7DEB7CB010B
:10053000642F49835A830E943E024981842F5A8145
:10054000952F0F900F90DF91CF910895CF93DF9368
:1005500000D000D0CDB7DEB72091C7013091C801DF
:10056000C901330FAA0BBB0BB983AD01772757FD28
:100570007095672F4A839B832C8344E050E0BE0133
:100580006F5F7F4F8EE892E00E9492020F900F9073
:100590000F900F90DF91CF910895CF93DF931F922B
:1005A000CDB7DEB7698361E0CE0101960E943E02BD
:1005B00081E090E00F90DF91CF910895089580E061
:1005C00090E008950E940D071F920F920FB60F92B0
:1005D00011242F933F934F935F936F937F938F9348
:1005E0009F93AF93BF93EF93FF9381EF91E00E94AE
:1005F0007B01FF91EF91BF91AF919F918F917F917F
:100600006F915F914F913F912F910F900FBE0F907F
:100610001F9018951F920F920FB60F9211242F93CF
:100620008F939F93EF93FF93E0910102F091020269
:100630008081E0910702F091080282FD12C0908152
:1006400080910A028F5F8F7320910B02821751F005
:10065000E0910A02F0E0EF50FE4F958F80930A027E
:1006600001C08081FF91EF919F918F912F910F9009
:100670000FBE0F901F9018951F920F920FB60F92FA
:1006800011242F933F938F939F93AF93BF938091A8
:10069000C3019091C401A091C501B091C6013091F0
:1006A000B10123E0230F2D3720F40196A11DB11DC8
:1006B00005C026E8230F0296A11DB11D2093B101AC
:1006C0008093C3019093C401A093C501B093C60168
:1006D0008091B2019091B301A091B401B091B501A4
:1006E0000196A11DB11D8093B2019093B301A09317
:1006F000B401B093B501BF91AF919F918F913F919C
:100700002F910F900FBE0F901F9018951F920F9270
:100710000FB60F9211242F933F934F935F936F93D4
:100720007F938F939F93AF93BF93EF93FF93E0914A
:100730000201F09103010995FF91EF91BF91AF91F3
:100740009F918F917F916F915F914F913F912F91E9
:100750000F900FBE0F901F9018951F920F920FB61B
:100760000F9211242F933F934F935F936F937F9337
:100770008F939F93AF93BF93EF93FF93E09100010B
:10078000F09101010995FF91EF91BF91AF919F9178
:100790008F917F916F915F914F913F912F910F902A
:1007A0000FBE0F901F9018951F920F920FB60F92C9
:1007B00011242F933F934F935F936F937F938F9366
:1007C0009F93AF93BF93EF93FF938091B900887F7E
:1007D000803609F49CC068F5883209F45BC090F457
:1007E000803109F454C038F4882309F4F6C0883005
:1007F00009F44DC0F6C0883109F44CC0803209F4C8
:100800005DC0EFC0803409F468C048F4803309F457
:1008100055C0883309F0E5C080938D01D8C080357C
:1008200009F44FC0883509F45DC0883409F0D9C097
:10083000D6C0883909F4C7C0A8F4883709F467C05E
:1008400038F4883609F463C0803709F460C0C9C041
:10085000883809F4B8C0803909F45FC0803809F0DD
:10086000C0C05BC0803B09F486C038F4803A09F40C
:1008700066C0883A09F47FC0B4C0803C09F4A7C0C0
:10088000883C09F4A4C0883B09F48AC0AAC08091BE
:10089000B00110C09091AF018091AE01981770F532
:1008A000E091AF0181E08E0F8093AF01F0E0E2575D
:1008B000FE4F80818093BB0085EC86C080938D01C4
:1008C0008EC0E091AF0181E08E0F8093AF018091E7
:1008D000BB00F0E0E257FE4F80839091AF01809122
:1008E000AE016EC0E091AF0181E08E0F8093AF0149
:1008F0008091BB00F0E0E257FE4F80838091B7010A
:1009000081116DC081E08093B60184EA61C083E00B
:100910008093B80110928C01CFCF80918C018032EE
:1009200008F051C0E0918C0181E08E0F80938C0122
:100930008091BB00F0E0E459FE4F8083BDCF85EC91
:100940008093BC001092B80180918C01803230F409
:10095000E0918C01F0E0E459FE4F108260918C012F
:1009600070E0E091BD01F091BE018CE691E0099547
:1009700010928C0136C084E08093B80110926B0114
:1009800010926A01E091BF01F091C0010995809138
:100990006A01811105C081E080936A0110924A01C9
:1009A000E0916B0181E08E0F80936B01F0E0E65BDC
:1009B000FE4F80818093BB0090916B0180916A0112
:1009C000981708F479CF85E88093BC000AC085ECBD
:1009D0008093BC001092B80104C010928D010E9457
:1009E0003402FF91EF91BF91AF919F918F917F91D1
:1009F0006F915F914F913F912F910F900FBE0F908C
:100A00001F901895E1EFF1E01382128288EE93E0D7
:100A1000A0E0B0E084839583A683B78328E031E02B
:100A20003183208325EC30E03587248724EC30E0C7
:100A30003787268720EC30E0318B208B21EC30E0AB
:100A4000338B228B22EC30E0358B248B26EC30E08C
:100A5000378B268B118E128E138E148EEEE8F2E0F9
:100A60001382128284839583A683B7838AE191E0FF
:100A7000918380830895789484B5826084BD84B521
:100A8000816084BD85B5826085BD85B5816085BD89
:100A900080916E00816080936E0010928100809141
:100AA00081008260809381008091810081608093C9
:100AB0008100809180008160809380008091B100EE
:100AC00084608093B1008091B00081608093B00019
:100AD00080917A00846080937A0080917A008260AD
:100AE00080937A0080917A00816080937A0080916F
:100AF0007A00806880937A001092C100E091010230
:100B0000F091020282E08083E091FD01F091FE010C
:100B10001082E091FF01F09100028FEC808310922F
:100B20000902E0910502F091060286E08083E091DF
:100B30000302F0910402808180618083E0910302CE
:100B4000F0910402808188608083E0910302F0913B
:100B50000402808180688083E0910302F0910402A6
:100B600080818F7D808388EC90E090930101809359
:100B70000001809169008C7F826080936900E89A0F
:100B80008CE48093BA0083ED90E09093C001809351
:100B9000BF018FED90E09093BE018093BD01109254
:100BA000BC011092BB011092BA011092B9011092CF
:100BB000B80181E08093B7011092B60182E10E94F2
:100BC000820083E10E9482008091B9008E7F809331
:100BD000B9008091B9008D7F8093B90088E480933B
:100BE000B80085E48093BC0086EA92E09093C2014D
:100BF0008093C101C2EDD0E02CE3322E3AE0832E87
:100C0000912CA12CB12C08EC10E02FB7F894809116
:100C1000C3019091C401A091C501B091C6012FBF3D
:100C20004091ED015091EE016091EF017091F00162
:100C3000841B950BA60BB70B883E9340A105B1050D
:100C400008F49AC0E898D0930101C0930001109273
:100C5000E9011092EA011092EB011092EC01E09090
:100C6000E701F090E8012091E5013091E601F701FC
:100C7000EE0FFF1FEF52FE4F329EC001339E900DCC
:100C800011249183808360E070E0CB01E1EDF1E01D
:100C9000219131912901330F66087708640D751D84
:100CA000861D971D21E0E53EF20791F76093E9016B
:100CB0007093EA018093EB019093EC01A5019401FC
:100CC0000E94E5062093CD013093CE014093CF01E1
:100CD0005093D0012093C9013093CA014093CB01B6
:100CE0005093CC011092E6011092E5018FEFE81AC3
:100CF000F80A2AE0E216F1042CF4F092E801E092FE
:100D0000E70104C01092E8011092E7012FB7F894B0
:100D10008091C3019091C401A091C501B091C60119
:100D20002FBF893F9A42A105B10540F08091C901CA
:100D30009091CA019093C8018093C7012FB7F8948E
:100D40008091C3019091C401A091C501B091C601E9
:100D50002FBF8093ED019093EE01A093EF01B0932C
:100D6000F0011093010100930001809169008C7FD4
:100D7000826080936900E89A0E940F022B013C0177
:100D800084E6C82ED12CE12CF12C0E940F02DC014C
:100D9000CB0184199509A609B709883E9340A1059E
:100DA000B10558F081E0C81AD108E108F10828EE31
:100DB000420E23E0521E611C711CC114D104E104D7
:100DC000F10419F70E94050220CFA1E21A2EAA1BF6
:100DD000BB1BFD010DC0AA1FBB1FEE1FFF1FA217EB
:100DE000B307E407F50720F0A21BB30BE40BF50BE8
:100DF000661F771F881F991F1A9469F76095709571
:100E0000809590959B01AC01BD01CF010895EE0F37
:100E1000FF1F0590F491E02D099481E090E0F89493
:080E20000C941207F894FFCFB7
:100E2800D200D200000000009C0109013401E30156
:100E380065014301570100000000CD029202DF0264
:080E480066028A0276026702CD
:107800000C94343C0C94513C0C94513C0C94513CE1
:107810000C94513C0C94513C0C94513C0C94513CB4
:107820000C94513C0C94513C0C94513C0C94513CA4
:107830000C94513C0C94513C0C94513C0C94513C94
:107840000C94513C0C94513C0C94513C0C94513C84
:107850000C94513C0C94513C0C94513C0C94513C74
:107860000C94513C0C94513C11241FBECFEFD8E036
:10787000DEBFCDBF11E0A0E0B1E0ECE9FFE702C060
:1078800005900D92A230B107D9F712E0A2E0B1E065
:1078900001C01D92AD30B107E1F70E942D3D0C945F
:1078A000CC3F0C94003C982F959595959595959582
:1078B000905D8F708A307CF0282F295A8091C0000B
:1078C00085FFFCCF9093C6008091C00085FFFCCF60
:1078D0002093C6000895282F205DF0CF982F809127
:1078E000C00085FFFCCF9093C6000895EF92FF92F1
:1078F0000F931F93EE24FF2487018091C00087FD22
:1079000017C00894E11CF11C011D111D81E4E8164B
:1079100082E4F8068FE0080780E0180770F3E09132
:107920000401F091050109958091C00087FFE9CF1E
:107930008091C6001F910F91FF90EF9008950E94D3
:10794000763C982F8091C00085FFFCCF9093C600B5
:1079500091362CF490330CF09053892F089597555D
:10796000892F08951F930E949F3C182F0E949F3CCF
:107970001295107F810F1F9108951F93182F882350
:1079800021F00E94763C1150E1F71F9108951F935A
:10799000182F0E94763C803249F0809103018F5F5E
:1079A000809303018530C1F01F9108958091C0003C
:1079B00085FFFCCF84E18093C6008091C00085FFE5
:1079C000FCCF1093C6008091C00085FFFCCF80E102
:1079D0008093C6001F910895E0910401F091050184
:1079E00009951F9108950E94763C803241F0809164
:1079F00003018F5F80930301853081F008958091AA
:107A0000C00085FFFCCF84E18093C6008091C00058
:107A100085FFFCCF80E18093C6000895E0910401CA
:107A2000F09105010995089540E951E08823A1F0FE
:107A30002D9A28EE33E0FA013197F1F721503040CA
:107A4000D1F72D9828EE33E0FA013197F1F7215064
:107A50003040D1F7815061F708953F924F925F9285
:107A60006F927F928F929F92AF92BF92CF92DF924E
:107A7000EF92FF920F931F93CF93DF93000080E16B
:107A80008093C4001092C50088E18093C10086E015
:107A90008093C2005098589A259A81E00E94143D24
:107AA00024E1F22E9EE1E92E85E9D82E0FE0C02ECA
:107AB00010E1B12EAA24A394B1E49B2EA6E58A2E50
:107AC000F2E57F2EE0E26E2E79E4572E63E5462E36
:107AD00050E5352E0E94763C8033B1F18133B9F107
:107AE000803409F46FC0813409F476C0823409F41B
:107AF00085C0853409F488C0803531F1823521F1A3
:107B0000813511F1853509F485C0863509F48DC0BC
:107B1000843609F496C0843709F403C1853709F423
:107B200072C1863709F466C0809103018F5F80932C
:107B30000301853079F6E0910401F0910501099582
:107B40000E94763C803351F60E94F33CC3CF0E94E2
:107B5000763C803249F78091C00085FFFCCFF092DF
:107B6000C6008091C00085FFFCCF9092C600809136
:107B7000C00085FFFCCF8092C6008091C00085FFC9
:107B8000FCCF7092C6008091C00085FFFCCF609250
:107B9000C6008091C00085FFFCCF5092C600809146
:107BA000C00085FFFCCF4092C6008091C00085FFD9
:107BB000FCCF3092C6008091C00085FFFCCFB09210
:107BC000C60088CF0E94763C863808F4BDCF0E945C
:107BD000763C0E94F33C7ECF0E94763C803809F4CC
:107BE0009CC0813809F40BC1823809F43CC1883942
:107BF00009F48FC080E00E94C73C6CCF84E10E94F2
:107C0000BD3C0E94F33C66CF85E00E94BD3C0E94D3
:107C1000F33C60CF0E94763C809306010E94763C44
:107C2000809307010E94F33C55CF0E94763C80333D
:107C300009F41DC183E00E94BD3C80E00E94C73C66
:107C400049CF0E94763C809309020E94763C809343
:107C5000080280910C028E7F80930C020E94763C79
:107C6000853409F415C18091080290910902892B8D
:107C700089F000E010E00E94763CF801E85FFE4FDA
:107C800080830F5F1F4F80910802909109020817AF
:107C9000190788F30E94763C803209F045CF809125
:107CA0000C0280FF01C16091060170910701660F0F
:107CB000771F7093070160930601A0910802B091AD
:107CC00009021097C9F0E8E0F1E09B01AD014E0F09
:107CD0005F1FF999FECF32BD21BD819180BDFA9A17
:107CE000F99A2F5F3F4FE417F50799F76A0F7B1F4B
:107CF00070930701609306018091C00085FFFCCF5F
:107D0000F092C6008091C00085FFFCCFB092C60003
:107D1000E1CE83E00E94C73CDDCE82E00E94C73CFA
:107D2000D9CE0E94763C809309020E94763C8093D3
:107D300008028091060190910701880F991F909386
:107D40000701809306010E94763C853409F4A6C0A1
:107D500080910C028E7F80930C020E94763C8032D0
:107D600009F0B8CE8091C00085FFFCCFF092C6002C
:107D7000609108027091090261157105B9F140E046
:107D800050E080910C02A82FA170B82FB27011C0E2
:107D9000BB2309F45CC0E0910601F0910701319624
:107DA000F0930701E09306014F5F5F4F46175707B7
:107DB000E8F4AA2369F3F999FECF209106013091E6
:107DC000070132BD21BDF89A90B58091C00085FFB2
:107DD000FCCF9093C6002F5F3F4F30930701209355
:107DE00006014F5F5F4F4617570718F38091C00099
:107DF00085FDE5CE8091C00085FFF8CFE0CE81E023
:107E00000E94C73C67CE0E94763C803209F08CCE3F
:107E10008091C00085FFFCCFF092C6008091C00029
:107E200085FFFCCFE092C6008091C00085FFFCCFAB
:107E3000D092C6008091C00085FFFCCFC092C600E2
:107E40008091C00085FFFCCFB092C60043CEE09188
:107E50000601F091070194918091C00085FFFCCF4D
:107E60009093C6009CCF80E10E94C73C33CE0E9415
:107E7000763C0E94763C182F0E94763C112309F430
:107E800083C0113009F484C08FE00E94C73C22CE29
:107E900080910C02816080930C02E5CE80910C02EF
:107EA000816080930C0259CF809107018823880F4D
:107EB000880B8A2180930B02809106019091070123
:107EC000880F991F90930701809306018091080203
:107ED00080FF09C080910802909109020196909359
:107EE000090280930802F894F999FECF1127E091D6
:107EF0000601F0910701C8E0D1E08091080290915D
:107F00000902103091F40091570001700130D9F34B
:107F100003E000935700E89500915700017001308D
:107F2000D9F301E100935700E89509901990009169
:107F3000570001700130D9F301E000935700E89534
:107F40001395103498F011270091570001700130FB
:107F5000D9F305E000935700E895009157000170B0
:107F60000130D9F301E100935700E895329602976A
:107F700009F0C7CF103011F00296E5CF112480919F
:107F8000C00085FFB9CEBCCE8EE10E94C73CA2CD19
:0C7F900085E90E94C73C9ECDF894FFCF0D
:027F9C00800063
:040000030000780081
:00000001FF
